:020000040800F2
:1000000060070020A9010008AD370008092E00088C
:10001000A9360008250700088542000800000000F6
:10002000000000000000000000000000813C00080B
:1000300029070008000000007D3C0008693E000818
:10004000C3010008C3010008C3010008C301000880
:10005000C3010008C3010008C3010008C301000870
:10006000C3010008C3010008C3010008C301000860
:10007000C3010008C3010008C3010008C301000850
:10008000C3010008C30100081907000800000000B0
:10009000000000000000000000000000C301000894
:1000A000253F0008453F0008C3010008C3010008C0
:1000B000C3010008C3010008C3010008C301000810
:1000C000C3010008C3010008C3010008C301000800
:1000D000C3010008614200086D42000800000000F2
:1000E0002D070008C3010008C3010008000000003C
:1000F000000000000000000000000000C301000834
:1001000000000000C3010008C3010008C30100088B
:1001100000000000000000000000000000000000DF
:10012000C3010008C3010008C3010008C30100089F
:10013000C3010008000000000000000000000000F3
:10014000000000000000000000000000C3010008E3
:10015000C3010008C3010008C30100087942000878
:10016000C3010008C30100080000000000000000F7
:10017000000000000000000000000000000000007F
:1001800000000000C30100080000000000000000A3
:10019000C3010008DFF80CD000F0A6FA00480047C1
:1001A0008D46000860070020064880470648004743
:1001B000FEE7FEE7FEE7FEE7FEE7FEE7FEE7FEE717
:1001C000FEE7FEE7113F0008950100082DE9F05F0A
:1001D0000546002092469B468846064681464024B6
:1001E0001BE0284641464746224600F0CDF95346DB
:1001F0005A46C01A914110D311461846224600F0C3
:10020000B4F92D1A67EB01084F4622460120002160
:1002100000F0ABF917EB00094E41201EA4F10104D8
:10022000DFDC484631462A464346BDE8F09F2DE9CB
:10023000FE4F804681EA0300C00F0C46009021F07B
:10024000004123F00045B8EB0200A94105D2404629
:10025000214690461C460B46024623F000401043C0
:1002600047D0270DC7F30A00C3F30A510290401A82
:10027000019040286BDAC3F3130040F4801B009810
:10028000924620B10023D2EB030A63EB0B0B0198DB
:100290005946C0F14002504600F067F906460D4647
:1002A00050465946019A00F07FF910EB0800614171
:1002B000002487EA115284EAE7731A4340D0009A77
:1002C00062B3019A012A4FEA075215DC001B61EB69
:1002D00002014FF0004202EA0752CDE90042001C41
:1002E00041F5801132462B4600F07FF903B0BDE89E
:1002F000F08F40462146F9E7001B61EB0201001C2C
:1003000041F5801300185B412018A2F5001747EB58
:10031000030140EAD570B6196D4111E06D084FEA4E
:10032000360645EAC0754FEA0752001B61EB020131
:10033000001C41F5801149084FEA30000019514175
:1003400032462B4603B0BDE8F04F00F03FB90098AD
:10035000012240000023D0EB020263EBE07300981F
:1003600021464FEAE074B8EB000061EB0401E9E7D5
:1003700083F000435BE781F0004158E72DE9FE4F31
:1003800081EA030404F0004421F0004100944FF09E
:10039000000B23F0004350EA01045ED052EA03044C
:1003A0005BD0C3F30A54C1F30A552C44A4F2F334CE
:1003B0000194A0FB0254C1F3130141F48011C3F373
:1003C000130343F4801301FB024400FB034E840A31
:1003D000970A44EA815447EA8357A4FB07680295C9
:1003E0008D0A05FB07854FEA932C04FB0C54270567
:1003F000029D4FEA065847EA1637B5EB08056EEB43
:10040000070C870E920E47EA811742EA8312A7FB78
:100410000201B6EB0B0164EB00042B0D43EA0C3335
:100420005E1844EB1C50DA465146E7FB0201C5F367
:1004300013044FEA0B3343EA14534FEA0432019C8E
:1004400043EA0603A4F10C040294009CCDE900B435
:1004500000F0CBF803B0BDE8F08F00200146F9E7CB
:100460002DE9F04D81EA030404F0004B21F0004532
:1004700014464FF0000A23F0004150EA050220D054
:1004800054EA01021DD0C5F30A570246C5F313030F
:10049000C1F31300C1F30A5640F4801543F48013EE
:1004A000A7EB0608101BD64608F2FD3873EB0500D3
:1004B00002D308F1010801E092185B41B8F1000F86
:1004C00003DA00200146BDE8F08D00204FF48011D2
:1004D000064684460EE0171B73EB050705D3121B77
:1004E00063EB050306434CEA010C49084FEA300070
:1004F00092185B4150EA0107EDD152EA030012D095
:1005000082EA040083EA0501084305D0101BAB41D1
:1005100006D20122002306E000224FF0004302E051
:100520006FF0010253101AEB06004CEB085110EB70
:100530000A0041EB0B01BDE8F04D00F047B830B5C3
:100540000B46014600202022012409E021FA02F591
:100550009D4205D303FA02F5491B04FA02F528442B
:10056000151EA2F10102F1DC30BD202A04DB203A85
:1005700000FA02F1002070479140C2F1200320FAF6
:1005800003F3194390407047202A04DB203A21FAF4
:1005900002F00021704721FA02F3D040C2F120029C
:1005A0009140084319467047202A06DBCB17203AB2
:1005B00041FA02F043EAE07306E041FA02F3D04068
:1005C000C2F12002914008431946704710B5141E2D
:1005D00073F1000408DA401C41F1000192185B41FC
:1005E0001A4301D120F0010010BD2DE9F04D9246D3
:1005F0009B4611B1B1FA81F202E0B0FA80F22032EA
:100600009046FFF7B2FF04460F4640EA0A0041EA6F
:100610000B0153465A46084313D0114653EA0100D2
:1006200019D0C8F140025046FFF7AEFF05460E460E
:10063000504659464246FFF798FF084305D001202F
:1006400004E020463946BDE8F08D0020054346EA27
:10065000E0762C4337430A986305E40AA0EB0800D0
:100660000022FD0A44EA47540A3002D50020014620
:10067000E9E7010510196941DDE9084500196941FB
:10068000BDE8F04DA2E7C1F30A52C1F3130140F2F5
:10069000FF3341F480119A4202DA0020014670478C
:1006A00040F233439A42A2F2334202DC5242FFF755
:1006B0006BBFFFF75ABF000030B5041E71F1000494
:1006C00004DB4FF00044404264EB0101141E73F15F
:1006D000000405DB1C464FF00043524263EB040369
:1006E000994208BF904230BD1CB5094800900948A6
:1006F00001900546009C06E0E06840F0010394E8A4
:10070000070098471034AC42F6D3FFF747FD0000CE
:10071000E86C0008086D000840F2F000C2F200002A
:1007200000F012B9FEE700007047000080B54FF4FA
:10073000805000F0B7FB4FF40050BDE8804000F05F
:10074000B1BB000072B600BFFEE7000010B503F0B9
:1007500001FF0DA151F8200040F2EC04C2F20004A8
:10076000206002F0A3FF207840F2420200F1140161
:10077000C2F20002117040F24301C0F11400C2F253
:100780000001087010BD00BFF1FFFFFFF6FFFFFF83
:10079000F9FFFFFFFDFFFFFF03000000070000005F
:1007A0000A0000000F0000007047000070B581B023
:1007B0000022009290F83C20012A03D10221084631
:1007C00001B070BD0E6801220A2E80F83C2009D3CA
:1007D000B2B25200D0F800E012FA86F21E3A0EF1E0
:1007E0000C0305E0D0F800E006EB46020EF1100322
:1007F0004FF0070C1D680CFA02F4A5431D608D68CC
:100800001C6805FA02F222431A60496806290FD8CB
:1008100001EB81014A1F71461F2351F8345F934059
:1008200025EA03030B60B3B203FA02F214E000BF3F
:1008300001EB81030C29B2B204D8714651F8304F54
:10084000233B03E0714651F82C4F413B1F259D404F
:1008500024EA05059A400D600B6842F2043CC4F29C
:10086000010C1A43ACF541739E450A603BD1122E30
:1008700006D1DCF8001041F48001CCF8001032E021
:1008800026F0010110292ED1DCF80010102E41F4C1
:100890000001CCF8001026D140F21001C2F2000194
:1008A00009684DF68362C4F21B32A1FB0212910C5F
:1008B00001EB8101490000910099A1B10099013932
:1008C0000091009979B1009901390091009951B1D5
:1008D000009901390091009929B1009901390091DD
:1008E00000990029EAD1002180F83C10084601B0A7
:1008F00070BD000040F2F001C2F20001884218BF52
:10090000704780B540F2F000C2F2000000F018F825
:1009100040F25C0CC2F2000C9CF80020531CD9B2CF
:100920000CEB42028CF800300B295080BDE880406F
:1009300024BF00208CF800007047000070470000C2
:100940000068C06C7047000070B504460068066817
:100950004568B10717D515F0200114D0216CC906E0
:1009600003D4216C41F400712164816811F0405F6F
:1009700002D1217E002969D02046FFF7BBFF206805
:100980006FF012010160710714D515F0800111D0CC
:10099000216CC90603D4216C41F4005121648168A3
:1009A00011F4401F22D02046FFF7FEFE20686FF0B2
:1009B0000C010160F10706D015F040011CBF016871
:1009C0005FEAC17134D1B1060FD515F0806108BF5F
:1009D00070BD616C6FF0200541F00201616405603B
:1009E0002046FFF7ABFF2068056070BD816B11F4F6
:1009F000401F02D081684905D5D441684905D2D449
:100A0000816811F0405FCED1217E0029CBD14168B1
:100A100021F080014160206C20F480502064206C23
:100A2000C005C0D4206C40F001002064BBE700BFCB
:100A3000206C40F480302064204600F0D1F820681B
:100A40006FF001010160B106BFD4CEE7C16A11F4B5
:100A5000700F03D0816849053FF58EAF416821F0E2
:100A600020014160206C20F480702064206CC00460
:100A70003FF582AF206C40F0010020647CE700006D
:100A8000002804BF0120704710B50446006C002800
:100A90003ED0206CC00645D4206C41F20211884340
:100AA000023042F204312064C4F20101086820F4EB
:100AB000403008600A6894E809101A43D4F810E03E
:100AC0000A604168012321F4807141604168C0F6E9
:100AD000007341EA0E214160416821F0407141609C
:100AE000416841EA0C014160816821F40061816044
:100AF000E168826811438160A16A8268994222F0AC
:100B000070628260826813D122F0405119E000BF08
:100B1000204600F067F80020606484F83C00206CF8
:100B2000C006B9D50120002184F83C1010BD00BFDB
:100B300011438160816821F040518160E16A8268DF
:100B400011438160816821F0020181608168227E09
:100B500094F8203041EA42018160416883B141F458
:100B60000061416041684EF2000221F46041416041
:100B7000616ACFF6FF72436802EB4131194301E02D
:100B800021F400614160C16A40F2000C21F470015F
:100B9000C162E2696169CFF6F07CC36A0CEB025274
:100BA0001A43C262826822F40072826094F8302094
:100BB000836843EA42228260826822F48062826013
:100BC000826842EA8121816000206064216C0122F8
:100BD00062F301012164002184F83C1010BD000083
:100BE0007047000080B586B042F200010068C4F290
:100BF0000101002288420592049201D006B080BD16
:100C000043F630000092C4F20200436943F480735B
:100C10004361436903F480730093009B009203686F
:100C200043F001030360006800F0010000900098A9
:100C3000102001900320CDE9020201F5604001A9D6
:100C400000F03CF912200721002200F095FA122052
:100C500000F080FA06B080BD80B581B0002100911F
:100C600090F83C10012903D1022001B080BD00BFE3
:100C7000D0F800E0012180F83C10714651F8083F9F
:100C8000DB072AD10B684DF6836243F001030B604A
:100C900040F21003C2F200031B68C4F21B32A3FB34
:100CA00002239A0C02EB42020092009AAAB100BF02
:100CB000009A013A0092009A7AB1009A013A0092A1
:100CC000009A52B1009A013A0092009A2AB1009A11
:100CD000013A0092009A002AEAD10A68036CD2070E
:100CE0000CD143F01001016400F1440101200A68B5
:100CF00010430860002001B080BD00BF40F20172C7
:100D000023EA020202F580720264DEF80420520532
:100D100004D5026C012363F30D320264026C4FF0C0
:100D2000000C0023D20444BF426C22F0060343644B
:100D300080F83CC06FF02200CEF80000DEF80420FE
:100D400042F2000042F0806242F02002C4F2010050
:100D5000CEF80420D0F80423D20609D086450BD162
:100D6000806810F0405F07D14FF08040BFE700BFC0
:100D7000086810F0405FF7D0002001B080BD00008F
:100D800070B5866D044600F075F994F835100229A7
:100D900028D105462068216C026822F01602026004
:100DA000426922F08002426109B9A16C19B101685F
:100DB00021F008010160016821F00101016000BF1C
:100DC00020680068C00715D000F054F9401B0628C1
:100DD000F6D320206065032084F83500002184F8D4
:100DE000341070BD802060650120002184F834102B
:100DF00070BD00BFE06D3F2101FA00F0B06001203E
:100E000084F835000020002184F8341070BD000003
:100E100090F83510022909D1052180F835100068B5
:100E2000016821F0010101600020704780214165C7
:100E300001207047B0B5044600F01CF9054640F2A9
:100E40000400C2F200000078611C18BF044400BF17
:100E500000F010F9401BA042FAD3B0BD70B540F2CB
:100E60001406C2F20006318840F200450446814271
:100E7000C4F2020508D12846214600F0EFF8012807
:100E800002D1708801307080B08AA04209D1284612
:100E9000214600F0E3F8012818BF70BDF08A013048
:100EA000F08270BD43F61441C4F201010A680242A7
:100EB00014BF08607047FFF7D1BF00002DE9F04F65
:100EC00082B000F13E4707F1FF77860546EA972793
:100ED00041F20006C4F20206072243F6004EB04279
:100EE00008BF0422C4F2010E042F38BF3A46002680
:100EF00000274FF00008009209E000BF08F1010848
:100F00000237B8F1100F06F1040600F0A3800D6857
:100F1000012202FA08F415EA0409EFD0D1F804B06E
:100F200003220BF0030CACF10105BA40012D6FEA6E
:100F3000020A0FD88268CD6802EA0A02BD402A433D
:100F400082604268A243CBF3001404FA08F42243FF
:100F5000426005E0BCF1030F02D14FF0030C1EE02C
:100F6000C2688C6802EA0A02BC402243BCF1020F4C
:100F7000C26014D16FF0030202EA58020244D2F8B0
:100F800020C006F01C040F230D69A3402CEA0303C4
:100F9000A5402B431362D1F804B00BF0030C026898
:100FA0000CFA07F302EA0A021A431BF4403F0260FC
:100FB000A4D0002243F644030192C4F202031A684B
:100FC0004FF6084C42F480421A601A68CFF6FF7C54
:100FD00002F480420192019A28F00302724452F80E
:100FE0000C3006F00C050F24AC40A343009C04FA1F
:100FF00005F52B4342F80C30DEF808204B6842EA36
:10100000090543F60C4CDC0258BF22EA0905CEF86C
:101010000850C4F2010CDCF800209C0242EA0905E9
:1010200058BF22EA0905CCF80050DEF804209C03E2
:1010300042EA090558BF22EA0905CEF80450DEF855
:101040000020DB0342EA090558BF22EA0905CEF871
:10105000005053E702B0BDE8F08F0000006908407F
:1010600018BF012070470000002A08BF09048161F1
:101070007047000040F25830C2F20000006870472C
:1010800040F2040040F25831C2F20000C2F2000106
:1010900000780A68104408607047000080B543F685
:1010A0000040C4F20200016841F40071016001686F
:1010B00041F480610160016841F4807101600320A6
:1010C00000F086F80E2000F005F800F027F8002068
:1010D00080BD000070B540F20406C2F2000640F286
:1010E00010013278C2F200014FF47A730968B3FB41
:1010F000F2F20446B1FBF2F1084600F061FB0F2C5E
:101100004FF0010508D838B94FF0FF3021460022D2
:10111000002500F031F87460284670BD82B00020D0
:1011200043F640010190C4F202014A6842F4804251
:101130004A604A6802F480420192019A009008686D
:1011400040F080500860086800F0805000900098DF
:1011500002B07047002848BF704700F01F0101220D
:1011600002FA01F11C2202EAD0004EF20012CEF285
:10117000000281507047000010B54EF60C5CCEF2B4
:10118000000CDCF80030C3F3022E8EF00704042CB0
:1011900028BF0424BEF103034FF0FF3E0EFA04F40F
:1011A00038BF0023A14399400EFA03F39A43114339
:1011B00000F00F0200F160430901043A03F56443B3
:1011C0006244002848BF02F10C03197010BD0000F2
:1011D0004EF60C51CEF200010A684FF6FF031A409A
:1011E00060F30A2242F0806040F0FD7008607047B2
:1011F000002804BF012070472DE9F04143F608089C
:10120000C4F202080446D8F8F8030D4600F00700BF
:10121000884207D288F8F853D8F8F80300F007009E
:10122000A84277D12068810717D5410705D5D8F89E
:10123000001041F4E051C8F80010010705D5D8F8B6
:10124000001041F46041C8F80010D8F80010A268FE
:1012500021F0F0011143C8F80010C00740D1D8F8C0
:10126000F80300F00700A84207D988F8F853D8F827
:10127000F80300F00700A8424CD12068410707D5C9
:10128000D8F80010E26821F4E0511143C8F80010CA
:10129000000708D5D8F80000216920F4604040EA32
:1012A000C100C8F8000000F07DF8D8F8001046F240
:1012B000B042C1F30311C0F60002515C40F21002CB
:1012C00020FA01F140F20800C2F200000068C2F208
:1012D00000021160FFF7FEFE0020BDE8F08100BFB4
:1012E0006068811E022907D258F8081C89015CBF7A
:1012F0000120BDE8F08111E0012807D158F8081C51
:1013000089035CBF0120BDE8F08107E058F8081CA4
:10131000890703D40120BDE8F08100BFD8F8001090
:1013200021F003010843C8F80000FFF7A3FE0646BA
:1013300041F28837D8F80000616800F00C00B0EB8B
:10134000810F8CD0FFF796FE801BB842F2D90320A4
:10135000BDE8F08140F2100043F60801C2F200003F
:10136000C4F202010068096846F2C042C1F382215A
:10137000C0F60002515CC8407047000040F2100007
:1013800043F60801C2F20000C4F2020100680968D5
:1013900046F2C042C1F34231C0F60002515CC8407F
:1013A0007047000010B543F60404C4F202046068FC
:1013B00000F00C0142F200400829C0F2F40007D00E
:1013C000042918BF10BD41F20020C0F27A0010BD00
:1013D000216801F03F02216823684902C3F38811A4
:1013E00006D4A1FB00010023FEF7F0FE07E000BFDA
:1013F00041F20020C0F27A004843B0FBF2F02168CD
:101400000222C1F3014102EB4101B0FBF1F010BD3A
:10141000002804BF012070472DE9F04182B0044646
:10142000007843F60006C007C4F202060CD0B0688C
:1014300000F00C00042840F081803068800303D560
:101440006068002800F06A81207880071BD5B068AA
:1014500010F00C0F09D0B06800F00C00082840F024
:1014600087807068400200F183803068800703D570
:10147000E068012840F052813068216920F0F800CE
:1014800040EAC10030602078000713D4207840077C
:101490002AD4A569002D00F03C81B06800F00C0052
:1014A000082840F0A180012D40F01081012002B0F9
:1014B000BDE8F0816069002840F20000C4F24720D6
:1014C00000F07E800121C0F8801EFFF7D3FD0546A5
:1014D000706F8007DAD4FFF7CDFD401B0228F7D9E3
:1014E000032002B0BDE8F081306C5FEAC0080AD486
:1014F00000200190306C40F080503064306C00F07F
:1015000080500190019847F20007C4F20007386844
:10151000C00547D4386840F480703860FFF7AAFDF2
:10152000054600BF3868C0053CD4FFF7A3FD401B4B
:101530000228F7D9032002B0BDE8F081B06800F0BE
:101540000C00082803D1706840023FF576AF606850
:10155000B0F5803F07D0B0F5A02F40F09B803068F9
:1015600040F480203060306840F4803030609BE090
:10157000E06800285CD00020C4F24720012101600F
:10158000FFF778FD054600BF306880073FF574AF70
:10159000FFF770FD401B0228F6D9032002B0BDE81A
:1015A000F08100BFA068012805D0052854D1306F14
:1015B00040F004003067306F40F00100306755E0C4
:1015C0000021C0F8801EFFF755FD0546706F8007AB
:1015D0007FF55CAFFFF74EFD401B0228F6D90320D4
:1015E00002B0BDE8F08100BF0027C4F24727002009
:1015F0003866FFF73FFD022D05460DD130688001AA
:1016000040F19080FFF736FD401B02284FF00300A9
:10161000F4D902B0BDE8F0813068800179D5FFF7D8
:1016200029FD401B02284FF00300F5D9F1E700BF68
:101630000020C4F2472000210160FFF71BFD054692
:10164000306880077FF51FAFFFF714FD401B0228AD
:101650004FF00300F4D9DCE7316F002821F00101DD
:101660003167316F21F0040131677DD0FFF702FD52
:10167000054641F2883700BF306F800700F1868051
:10168000FFF7F8FC401BB842F6D9032002B0BDE8D2
:10169000F08100BF3168002821F480313160316869
:1016A00021F4802131607BD0FFF7E4FC054600BFC8
:1016B000306880033FF5C8AEFFF7DCFC401B6428B0
:1016C000F6D9032002B0BDE8F08100BF7068E1697F
:1016D00000F480028A4221D1216A00F03F028A424E
:1016E0001CD147F6C071626A0140B1EB821F15D16F
:1016F000A16A4FF6FF73C903994300F44032A1F584
:1017000080318A420AD1E16A00F07060B0EB016F6B
:1017100004D1002002B0BDE8F08100BF012002B07A
:10172000BDE8F08104F11C052FCD084340EA82108A
:10173000D9034FF6FF729143A1F5803140EA05606D
:101740000843706001203866FFF794FC044600BF30
:1017500030688001DDD4FFF78DFC001B02284FF0BC
:101760000300F5D955E700BFFFF784FC054641F2B9
:10177000883700BF306F800708D5FFF77BFC401B20
:10178000B8424FF00300F5D943E700BFB8F1000FAE
:101790003FF57FAE306C20F08050306479E600BFBA
:1017A000FFF768FC054600BF306880037FF54CAE4C
:1017B000FFF760FC401B64284FF00300F4D928E7D2
:1017C000411E0020B0EB116F1CBF012070474EF28C
:1017D0001002CEF2000251604EF62351CEF200010B
:1017E000F0230B7007219060116070477047000074
:1017F0007047000090F83C20012A04BF0220704787
:10180000B0B501F108053CCDD1E900CE23F47C53FD
:1018100022F470521A432EF4F0431A432CF4E0439E
:101820001A4324F4C0431A432A43C96922F480426C
:10183000036811435964002180F83C10BDE8B040B2
:101840000846704790F83C20012A4FF0020241D030
:1018500010B580F83D200268D2F804E0D2F808C044
:101860000C682EF07003234340F6FF34C4F20004EA
:10187000A242536010DCB2F1804F1ED040F2004310
:10188000C4F200039A4218D040F60003C4F20003E9
:101890009A4212D016E000BF40F60043C4F20003A3
:1018A0009A420AD044F20003C4F201039A4204D0DF
:1018B0000023C4F201039A4204D149682CF080034A
:1018C000194391600121002280F83D1080F83C20EE
:1018D000BDE8104010467047002804BF0120704743
:1018E00010B5044690F83D0028B9002084F83C006B
:1018F000204600F01FF8022084F83D002068211DDA
:1019000002F030FB012084F8460084F83E0084F8A1
:101910003F0084F8400084F8410084F8420084F8D5
:10192000430084F8440084F8450084F83D0000201A
:1019300010BD000080B586B000684FF6FF71C4F29C
:10194000000188422ADD44F20041C4F201018842CC
:1019500044D044F20001C4F20101884258D0002171
:10196000C4F20101884240F09A800020019043F6C1
:101970004400C4F202000168002241F0010101604C
:101980000068002100F00100019001981820FFF785
:10199000F3FB1820FFF7DEFB2FE000BF40F2004111
:1019A000C4F2000188424DD040F60001C4F20001AB
:1019B000884274D10020019043F64400C4F2020032
:1019C00050F8041C41F0040140F8041C50F8040CC9
:1019D00000F004000190019806B080BD0020019045
:1019E00043F64400C4F20200016841F40031016092
:1019F000006800F4003001900198192000210022B5
:101A0000FFF7BAFB192006B0BDE88040FFF7A2BB84
:101A10000020019043F64400C4F202000168002255
:101A200041F4803101600068002100F480300190B1
:101A300001981820FFF7A0FB182006B0BDE88040F1
:101A4000FFF788BB002043F644010190C4F2020175
:101A500051F8042C42F0020241F8042C51F8042CF5
:101A600002F002020192019A019051F8142C42F006
:101A7000020241F8142C51F8141C01F002010191EA
:101A80000199012101910221CDE90210CDE9040162
:101A900040F20040C4F2020001A9FFF70FFA06B0BD
:101AA00080BD000090F83D1001291CBF0120704747
:101AB000022180F83D10006840F6FF31C4F20001B9
:101AC00088420FDCB0F1804F1DD040F20041C4F2DB
:101AD0000001884217D040F60001C4F2000188429C
:101AE00011D017E040F60041C4F2000188420AD04C
:101AF00044F20001C4F20101884204D00021C4F282
:101B00000101884206D1816801F00701062904BF5E
:101B100000207047016841F001010160002070471A
:101B200090F83D1001291CBF01207047022180F868
:101B30003D10006840F6FF32C168C4F200029042D6
:101B400041F00101C1600FDCB0F1804F1DD040F2C7
:101B50000041C4F20001884217D040F60001C4F2EF
:101B60000001884211D017E040F60041C4F20001A4
:101B700088420AD044F20001C4F20101884204D034
:101B80000021C4F20101884206D1816801F00701F9
:101B9000062904BF00207047016841F0010101607F
:101BA0000020704790F83C20012A4FF0020200F01C
:101BB000C58080B580F83D20D0F800C04FF6777220
:101BC000DCF8083023EA0202CCF808200B684F2B1F
:101BD00028DC1F2B44DD202B45D0302B43D0402B5D
:101BE00040F0AE80D1F804E0C968DCF82030DCF8C1
:101BF000202022F00102CCF82020DCF8182022F06E
:101C0000F00242EA011123F00A0242EA0E02CCF885
:101C10001810CCF82020DCF8081041F0470121F022
:101C2000300180E06F2B27DDB3F5005F48D0B3F5BE
:101C3000805F7AD0702B40F08380D1E901E3C968DE
:101C4000DCF8082043EA0E0322F47F4243EA012134
:101C50001143CCF80810DCF8081041F0770162E07D
:101C60000BB1102B6CD1DCF8081021F07001194376
:101C700041F0070157E000BF502B35D0602B5FD1FA
:101C8000D1F804E0C968DCF82030DCF8202022F02C
:101C90001002CCF82020DCF8182022F4704242EA2E
:101CA000013123F0A00242EA0E12CCF81810CCF851
:101CB0002020DCF8081041F0670121F0100132E02B
:101CC000D1E901E3C968DCF8082043EA0E0322F4F5
:101CD0007F4243EA01211143CCF80810DCF80810D8
:101CE00041F480411FE000BFD1F804E0C968DCF88E
:101CF0002030DCF8202022F00102CCF82020DCF893
:101D0000182022F0F00242EA011123F00A0242EA0E
:101D10000E02CCF81810CCF82020DCF8081041F0A6
:101D2000570121F02001CCF808100022012180F891
:101D30003D10002180F83C10BDE8804010467047FF
:101D40000122F3E77047000090F83C30012B04BFFC
:101D5000022070474FEAB202032A2DD8F0B5DFE81F
:101D600002F003314F6F00BF0368D1E900C5D1F81D
:101D70000CE01C6A1A6A40F6FF3722F001021A6270
:101D80001A4652F8186FC4F20007BB4200F37E8077
:101D9000B3F1804F00F08B8040F20047C4F200079F
:101DA000BB4200F0848040F60007C4F20007BB424B
:101DB00000F07D8098E000BF0121002280F83C20E7
:101DC000084670470368D1E900E6D1E902C11C6A00
:101DD0001A6A360222F010021A621A4652F8185F86
:101DE0004FF2FF07BE4325F4734561F30F3624F02D
:101DF000A0040EF00A0746EA050144EA07173CE092
:101E00000768D1E900C5D1E902313C6A3A6A61F359
:101E1000071522F480723A623A4652F81C6F26F097
:101E2000F30645EA060124F420660CF00A0546EAAA
:101E3000052611603E62116821F00C01116047E037
:101E40000368D1E900E6D1E902C11C6A1A6A3602C8
:101E500022F480521A621A4652F81C5F4FF2FF07B2
:101E6000BE4325F4734561F30F3624F420440EF08D
:101E70000A0746EA050144EA073711601F62116844
:101E80004FEA0C2321F44061116021E040F6004745
:101E9000C4F20007BB420AD044F20007C4F20107B3
:101EA000BB4204D00027C4F20107BB421CD126F07C
:101EB0000306354324F00A070CF00A066EF30715F3
:101EC00037449D611F629F6927F00C079F618B68F3
:101ED0001168194311600021BDE8F040002280F82C
:101EE0003C200846704700BF46F00105E2E70000CD
:101EF000002804BF0120704710B5044690F83D004B
:101F000028B9002084F83C00204600F01FF8022089
:101F100084F83D002068211D02F024F8012084F897
:101F2000460084F83E0084F83F0084F8400084F8BE
:101F3000410084F8420084F8430084F8440084F8A7
:101F4000450084F83D00002010BD000070470000EF
:101F500070B504460068C5680669B10716D515F066
:101F6000020113D06FF00201016101212177806924
:101F7000800703D02046FFF7E5FE05E0204600F08D
:101F80008FF8204600F0BAF900202077700719D5A5
:101F900015F0040016D020686FF0040101610221E1
:101FA0002177806910F4407F04D02046FFF7CAFEF5
:101FB00006E000BF204600F073F8204600F09EF9CE
:101FC00000202077300717D515F0080014D02068BE
:101FD0006FF00801016104212177C069800703D0F7
:101FE0002046FFF7AFFE05E0204600F059F82046F6
:101FF00000F084F900202077F00619D515F01000C4
:1020000016D020686FF01001016108212177C069A6
:1020100010F4407F04D02046FFF794FE06E000BF96
:10202000204600F03DF8204600F068F900202077B7
:10203000F00718BF15F0010002D1300609D412E0F4
:1020400020686FF001010161204600F0D1F93006EF
:1020500009D515F0800006D020686FF0800101617D
:102060002046FFF7C3FB700609D515F0400006D0E7
:1020700020686FF040010161204600F029FAB006A7
:1020800058BF70BD15F0200008D021686FF0200205
:1020900020460A61BDE87040FFF7AABB70BD000092
:1020A0007047000090F83C30012B04BF02207047BD
:1020B0004FEAB202032A3BD82DE9F043DFE802F0F1
:1020C000023E7AB4036800261D6A1A6AC4F2010649
:1020D00022F001021A621A465C6852F818CFB34225
:1020E0008E68D1F800E025F0020545EA06050CD11E
:1020F000CE68D1E9057824F4407425F00C0526F06B
:1021000004063C43354344EA08042CF0730747EACD
:102110000E075C609F614F6809695F631D629F697C
:1021200047F008079F619F6927F004079F61AAE0B5
:102130000121002280F83C200846704703680026F1
:102140001D6A1A6AC4F2010622F010021A621A46C7
:10215000D3F804C052F8184FB3428E68D1F800E0AB
:1021600025F0200545EA06150FD1CE68D1E905987E
:102170006FF0400725F0C00507EA061635432CF43A
:10218000406748EA090647EA860C24F4E64444EA34
:102190000E27C3F804C09F614F6809699F631D62E1
:1021A0009F6947F400679F619F6927F480679F617B
:1021B00068E000BF036800261D6A1A6AC4F20106BF
:1021C00022F480721A621A46D3F804C052F81CEF47
:1021D000B3428E680C6825F4007545EA06250FD1D8
:1021E000CE68D1E90598360240F2FF4725F44065F4
:1021F000BE4335432CF4405748EA090647EA061C1B
:102200002EF073072743C3F804C0DF614F680969E4
:10221000DF631D62DF6947F00807DF61DF6927F0D0
:102220000407DF612FE000BF03680027D3F820C058
:102230001A6AC4F2010722F480521A621A465C68D4
:1022400052F81C5FD1F800E08E68BB4204D14F69A0
:1022500024F4804444EA87142CF4005747EA0637F4
:1022600025F4E64646EA0E265C60DE614E680969A2
:102270001E641F62DF6947F40067DF61DF6927F4CE
:102280008067DF6109021368194311600021BDE80E
:10229000F043002280F83C2008467047002804BF25
:1022A0000120704710B5044690F83D0028B9002081
:1022B00084F83C00204600F01FF8022084F83D001E
:1022C0002068211D01F04EFE012084F8460084F8AC
:1022D0003E0084F83F0084F8400084F8410084F810
:1022E000420084F8430084F8440084F8450084F8F0
:1022F0003D00002010BD0000704700007047000046
:1023000041B1082910D0042914BF00F1410200F1A5
:102310003F020BE090F83E20012A1CBF01207047CD
:10232000022280F83E2013E000F140021278012AD8
:102330001CBF012070470222082907D0042914BFBE
:1023400080F8412080F83F2002E000BF80F8402064
:10235000006801F01F010122036A8A4023EA02019A
:102360000162036A4421C4F201011A43A1F144034A
:102370009842026216D040F6FF31C4F20001884252
:102380001ADCB0F1804F28D040F20041C4F20001C5
:10239000884222D040F60001C4F2000188421CD0DD
:1023A00020E000BF0A6842F400420A6040F6FF31B4
:1023B000C4F200018842E4DD40F60041C4F20001AD
:1023C00088420AD044F20001C4F20101884204D0DC
:1023D0000021C4F20101884204D1816801F00701A3
:1023E000062903D0016841F0010101600020704717
:1023F00040F28011C2F20001884207D040F2582119
:10240000C2F20001884225D0704700BF40F214009C
:10241000C2F20000418890ED021A00EE101AB2EEEE
:10242000062AB8EE400A21EE021A80EE010A0021C7
:1024300080ED030A4180C28A90ED071A00EE102A4F
:10244000B8EE400A21EE021A80EE010A80ED080A79
:10245000C182704740F25800C2F20000017840F299
:102460004C0201310170C2F200021388C9B201337B
:1024700013804288002A1CBF013242800B2938BFDA
:10248000704780B52DED028B40F24202C2F200028D
:102490001278002100EE102AB7EE008A0170B8EE23
:1024A000400A0020F0EE480A03F0A2F940F243008F
:1024B000C2F200000078F0EE480A00EE100AB8EE12
:1024C000400A0120BDEC028BBDE8804003F0E4B976
:1024D000704700007047000070470000B0B582B040
:1024E000044600680168C368426901F02F05202D89
:1024F00003F0200506D12DB1204602B0BDE8B04062
:1025000001F0B6BD5FEA017C1EBF02F0010E03F4CC
:10251000907212EB0E0243D1226BCD0618D5012A20
:1025200016D113F0100213D000210191016801911E
:10253000416801910199406940063BD4A08DE18D2D
:10254000E28D002A18BF884240F0F28102B0B0BD8F
:102550000A0640F1E78013F0800200F0E38094F86F
:1025600041102129F2D1A168B1F5805F03D1216921
:10257000002900F06382216A4A1C226209784160C6
:10258000E18C01390A04E184E0D1C16821F08001C5
:10259000C160C16841F04001C16002B0B0BD00BF80
:1025A000CA0718BF13F4807240F0D0804A0700F1C8
:1025B000D380D8E0E06B016849688AB2002AC5D0B0
:1025C000A38D9A42C2D2E185C069B0F5807F00F048
:1025D0009D80206850E8030F216820F4807041E856
:1025E0000302DAB1206850E8030F216820F48070FC
:1025F00041E8030292B1206850E8030F216820F4FB
:10260000807041E803024AB1206850E8030F216856
:1026100020F4807041E80302002ADAD1206850E8F3
:10262000050F216820F0010041E80502BAB32068D7
:1026300050E8050F216820F0010041E8050272B35F
:10264000206850E8050F216820F0010041E80502EC
:102650002AB3206850E8050F216820F0010041E806
:102660000502002ADAD11AE0206850E8050F216837
:1026700020F0400041E80502DAB1206850E8050F7B
:10268000216820F0400041E8050292B1206850E83E
:10269000050F216820F0400041E805024AB120689A
:1026A00050E8050F216820F0400041E80502002AAB
:1026B000DAD1202084F8420000202063206850E80E
:1026C000030F216820F0100041E80302DAB120680E
:1026D00050E8030F216820F0100041E8030292B196
:1026E000206850E8030F216820F0100041E8030241
:1026F0004AB1206850E8030F216820F0100041E83B
:102700000302002ADAD1E06BFEF73AFB0220606395
:10271000A08DE18D401A81B2204602B0BDE8B040E4
:10272000FFF7D8BE49067FF511AF13F040013FF423
:102730000DAFC16821F04001C1602021204684F81E
:10274000411002B0BDE8B04000F05CBB626C42F0EA
:10275000010262644A0706D5BEF1000F03D0626C25
:1027600042F0020262648A0706D5BEF1000F03D070
:10277000626C42F004026264BCF1000F06D55EEAAE
:10278000050203D0626C42F008026264626C002AA7
:102790003FF4DCAE890604D51DB1204601F068FC8B
:1027A00020684069616C00F0400001F008014018A9
:1027B00000F0B680206850E8030F216820F4907084
:1027C00041E80302BAB3206850E8030F216820F4FF
:1027D000907041E8030272B3206850E8030F21684B
:1027E00020F4907041E803022AB3206850E8030FF8
:1027F000216820F4907041E80302002ADAD11AE03F
:10280000206850E8050F216820F0010041E805022A
:10281000DAB1206850E8050F216820F0010041E896
:10282000050292B1206850E8050F216820F00100F0
:1028300041E805024AB1206850E8050F216820F000
:10284000010041E80502002ADAD1206B012824D1D9
:10285000206850E8030F216820F0100041E80302CF
:10286000DAB1206850E8030F216820F0100041E839
:10287000030292B1206850E8030F216820F0100095
:1028800041E803024AB1206850E8030F216820F0B4
:10289000100041E80302002ADAD1202084F8420027
:1028A0000020206320684069400640F1C180206814
:1028B00050E8050F216820F0400041E80502DAB138
:1028C000206850E8050F216820F0400041E805022B
:1028D00092B1206850E8050F216820F0400041E8DF
:1028E00005024AB1206850E8050F216820F0400039
:1028F00041E80502002ADAD1E06B002800F0988058
:1029000044F26501C0F600010165FEF781FA002876
:102910003FF41CAEE06B016D02B0BDE8B04008476B
:102920002046FFF7D9FD0020606402B0B0BD00BFB3
:10293000401A00BF216851E8031F226821F49071FA
:1029400042E80313BBB3216851E8031F226821F456
:10295000907142E8031373B3216851E8031F2268A2
:1029600021F4907142E803132BB3216851E8031F4F
:10297000226821F4907142E80313002BDAD11AE0A7
:10298000216851E8051F226821F0010142E8051382
:10299000DBB1216851E8051F226821F0010142E8FE
:1029A000051393B1216851E8051F226821F0010148
:1029B00042E805134BB1216851E8051F226821F058
:1029C000010142E80513002BDAD1202184F84210DE
:1029D00000212163216851E8031F226821F01001C2
:1029E00042E80313DBB1216851E8031F226821F09C
:1029F000100142E8031393B1216851E8031F2268D4
:102A000021F0100142E803134BB1216851E8031F84
:102A1000226821F0100142E80313002BDAD10222D0
:102A200081B22046626302B0BDE8B040FFF752BDFC
:102A3000204602B0BDE8B040FFF74EBD216A31F834
:102A4000022B6FF35F224260216299E5002804BFE8
:102A50000120704710B5044690F8410028B90020C5
:102A600084F84000204600F021F8242084F841003A
:102A70002068C16821F40051C160204601F078FB54
:102A80002068016921F490410161416921F02A0126
:102A90004161C16841F40051C1600020202160649F
:102AA00084F8411084F84210606310BD10B586B000
:102AB000006844F20042C4F2000200219042CDE9D5
:102AC0000411CDE9021101913AD041F20041C4F262
:102AD0000101884260D041F20001C4F20101884244
:102AE00040F08D80002043F630010090C4F20201D6
:102AF0004A6942F010024A614A6902F010020092EB
:102B0000009A00900A6842F001020A60096801F028
:102B10000101009100994FF4C06101910221CDE9BA
:102B2000021003200490072005900020C4F2020048
:102B300001A9FEF7C3F9252003210022252459E02D
:102B400043F630000091C4F20200026942F4003200
:102B50000261026902F400320092009A0091026858
:102B600042F001020260006800F00100009000984D
:102B70000C2001900220CDE90201032004900720DF
:102B800005900020C4F2020001A9FEF797F9262063
:102B90000321002226242DE0002043F6300100907E
:102BA000C4F202014A6942F020024A614A6902F015
:102BB00020020092009A00900A6842F004020A6023
:102BC000096801F0040100910099C02101910221DE
:102BD000CDE9021003200490082005900020C4F2E3
:102BE000020000F5006001A9FEF768F947200F21F7
:102BF00000224724FEF7C0FA2046FEF7ABFA06B0E3
:102C000010BD000090F84230202B07D100294FF072
:102C1000010318BF002A05D1184670470223184641
:102C2000704700BF00230363816222218285C28531
:102C3000436480F842100169006819B1C16841F429
:102C40008071C160416941F001014161C16841F099
:102C50002001C16018467047006841F20001C4F2CB
:102C60000101884218BF704710B540F27804C2F2E3
:102C7000000414F80B0F00F085FF04F12100214639
:102C80000122BDE81040FFF7BDBF00002DE9F04173
:102C9000044690F8410020281CBF0220BDE8F081C6
:102CA0000D4600294FF0010000F0AA801646002AC8
:102CB00008BFBDE8F081002060642120984684F8B8
:102CC0004100FEF7D7F9A684E684A1680646B1F56F
:102CD000805F02D12069002862D02F460025E08C59
:102CE000002861D018F1010018D0B8F1000F37D1D9
:102CF000216808E017F8010B4860E08C0138E08497
:102D0000E08C002851D00868000673D5002FF1D15F
:102D100035F8020B00276FF35F20EDE7216802E032
:102D20000868000609D40868000606D4086800068A
:102D30005CBF08685FEA0060F2D51FB117F8010BAD
:102D400005E000BF35F8020B00276FF35F204860F5
:102D5000E08C0138E084E08C0028E4D125E000BF5D
:102D6000216800BF0868000608D4FEF783F9801BBD
:102D7000404541D82168C868F4E700BF17B117F88B
:102D8000010B04E035F8020B00276FF35F20486069
:102D9000E08C0138E084E08C0028E3D105E000BF3E
:102DA0000027E08C00289DD12168086840061FD4C8
:102DB000B8F1000F1ED018F101000FD108684006CD
:102DC00016D40868400613D40868400610D4086872
:102DD00040064FF00000F1D50FE000BFFEF74AF9C2
:102DE000801B404508D82068C16800684006F5D5BA
:102DF000002002E0FEF73EF90320202184F8411074
:102E0000BDE8F08170470000FEE7000010B584B017
:102E100040F2F00042F2000C01220021C2F2000058
:102E2000C4F2010C4FF480330124C0F60072039108
:102E3000047680F82010C0E90A21C46180F83010BF
:102E4000C0E900C3C0E90211C0E90414FDF718FE8F
:102E5000002818BFFDF776FC0420CDE9000402909D
:102E600040F2F000C2F200006946FDF79FFC002826
:102E700018BFFDF767FC40F2F000C2F20000FDF75A
:102E8000EBFE04B010BD00002DE9F04F87B0002428
:102E900043F63000CDE905440194C4F20200016814
:102EA00040F6000841F0040101600168C4F2020824
:102EB00001F004010191019901940168A8F580666F
:102EC00041F0800101600168002201F08001019160
:102ED00001990194016841F001010160016801F06C
:102EE0000101019101990194016841F00201016021
:102EF00000680C2100F00200019001983046FEF7B6
:102F0000B3F840464FF440710022FEF7ADF8A8F543
:102F1000006A50464FF4C05100224FF4C059FEF7EA
:102F2000A3F840464FF4C05101220125FEF79CF85A
:102F300042F20E4002A902AF31C140463946FDF7C8
:102F4000BDFFE12002A931C150463946FDF7B6FF69
:102F50002020CDE902044FF0020B40463946CDF85F
:102F600010B0FDF7ABFF0C2002A981E82108304624
:102F700039460594FDF7A2FF4FF4405002904FF4FC
:102F80008810CDE9030B30463946FDF797FF4FF423
:102F9000407002A981E82108404639460594FDF7B2
:102FA0008DFF50463946CDE90295CDE90444FDF741
:102FB00085FF40463946CDE90295CDE90454FDF739
:102FC0007DFF282001210022FEF7D6F82820FEF7F9
:102FD000C1F807B0BDE8F08F80B540F2801044F230
:102FE0000041C2F20000C4F201015322002342F268
:102FF0000F7C80E80E10802103618161FEF76CFC7C
:10300000002818BFFDF79EFB40F28010C2F20000BE
:10301000BDE88040FEF784BD70B59CB040F200442E
:10302000C4F2020440F238100021A4F58232C2F248
:10303000000053234FF47A7680251591CDE91311C2
:103040001191CDE90F11CDE90D11CDE90B11CDE9AC
:103050000911CDE90711CDE90511CDE90311CDE93C
:103060000111C0E90023C0E90216C0E9041185611D
:10307000FEF732FC002818BFFDF764FB4FF48050C8
:10308000129040F23810C2F2000012A9FEF78AFD39
:10309000002818BFFDF756FB40F23810C2F20000BE
:1030A000FFF7FCF8002818BFFDF74CFB40F2381082
:1030B0000025C2F2000010A9CDE91055FEF7C2FBB1
:1030C000002818BFFDF73EFB6020099064200A909D
:1030D0000220CDE90B0540F23810C2F2000009A928
:1030E0000022CDE90D550F95FEF7DCFF002818BF33
:1030F000FDF728FB40F238154FF40050C2F20005EE
:103100000026069001A928460596CDE90366CDE97B
:1031100001660896FEF76EFB002818BFFDF712FB4C
:103120002846FEF7BFFC286840F20041C4F20001C7
:103130008842179620D040F60001C4F20001884270
:103140002CD00021C4F20101884244D10020169005
:1031500043F63000C4F202000168A4F5806441F037
:1031600001010160006800F00100169016984FF40C
:1031700080701790012024E00020169043F6300064
:10318000C4F20200016841F002010160006800F031
:103190000200169016980220179012E00020169058
:1031A00043F63000C4F20200016841F00201016000
:1031B000006800F00200169016984FF47070179097
:1031C0000220022118910021CDE919111B9017A9A5
:1031D0002046FDF773FE1CB070BD000070B598B0BE
:1031E00040F20044C4F2020440F2C8100021A4F5E9
:1031F0000032C2F2000053234FF6FF761191CDE961
:103200000F110D91CDE90B11CDE90911CDE9071190
:10321000CDE90511CDE90311CDE90111C0E9002384
:10322000C0E9021601618161FEF756FB002818BF54
:10323000FDF788FA4FF480500E9040F2C810C2F2A9
:1032400000000EA9FEF7AEFC002818BFFDF77AFAC1
:1032500040F2C810C2F20000FEF74AFE002818BF74
:10326000FDF770FA40F2C810C2F20000FFF716F83E
:10327000002818BFFDF766FA40F2C8100025C2F218
:1032800000000CA9CDE90C55FEF7DCFA002818BFA8
:10329000FDF758FA0120CDE9090540F2C810C2F245
:1032A000000008A9082208950B95FEF74DFD00289F
:1032B00018BFFDF747FA40F2C8156020C2F20005BA
:1032C0000190002601A928460C22CDE90266059648
:1032D000FEF7E8FE002818BFFDF734FA2846FEF78F
:1032E000E1FB286840F20041C4F2000188421396D5
:1032F00020D040F60001C4F2000188422CD0002109
:10330000C4F20101884244D10020129043F63000FB
:10331000C4F202000168A4F5806441F0010101607B
:10332000006800F00100129012984FF48070139022
:10333000012024E00020129043F63000C4F2020085
:10334000016841F002010160006800F00200129083
:1033500012980220139012E00020129043F63000E1
:10336000C4F20200016841F002010160006800F04F
:103370000200129012984FF47070139002200221F4
:1033800014910021CDE91511179013A92046FDF7DE
:1033900095FD18B070BD0000B0B594B040F2004487
:1033A00040F21020C4F202040021C2F200004FF4E7
:1033B0007A750D91CDE90B110991CDE90711CDE990
:1033C0000511CDE90311CDE90111A4F5FE32532316
:1033D000C0E9021501618021C0E900238161FEF787
:1033E0007BFA002818BFFDF7ADF94FF480500A9022
:1033F00040F21020C2F200000AA9FEF7D3FB002819
:1034000018BFFDF79FF940F21020C2F20000FEF74E
:1034100045FF002818BFFDF795F940F21020002560
:10342000C2F2000008A9CDE90855FEF70BFA002802
:1034300018BFFDF787F96020CDE9010540F21020A3
:10344000C2F2000001A9002203950595FEF72AFEAD
:10345000002818BFFDF776F940F21020C2F20000F4
:1034600001A90422FEF71EFE002818BFFDF76AF925
:1034700040F21020C2F2000001A90822FEF712FE5D
:10348000002818BFFDF75EF940F21025C2F20005D2
:1034900001A928460C22FEF705FE002818BFFDF7FB
:1034A00051F92846FEF7FEFA286840F20042C4F2BD
:1034B0000002002190420F9120D040F60001C4F29A
:1034C000000188422CD00021C4F20101884244D17D
:1034D00000200E9043F63000C4F202000168A4F50B
:1034E000806441F001010160006800F001000E906D
:1034F0000E984FF480700F90012024E043F63000C6
:103500000E91C4F20200016841F0020101600068FE
:1035100000F002000E900E9802200F9013E000BF02
:1035200000200E9043F63000C4F20200016841F022
:1035300002010160006800F002000E900E984FF446
:1035400070700F900220022110910021CDE911111D
:1035500013900FA92046FDF7B1FC14B0B0BD0000D8
:1035600080B584B040F258200021C2F2000044F23D
:10357000000240F2E73C0391CDE90111C4F20102DF
:1035800040F24733C0E9021C01618021C0E90023F9
:103590008161FEF7A1F9002818BFFDF7D3F84FF4B9
:1035A0008050009040F25820C2F200006946FEF7B9
:1035B000F9FA002818BFFDF7C5F840F25820C2F20A
:1035C0000000FEF7ADFA04B080BD000080B540F207
:1035D000780041F20001C2F20000C4F2010140F89B
:1035E0002C1F4FF4E13100220C23C0E90112C0E985
:1035F0000322C0E90532C261FFF728FA002808BF9C
:1036000080BDBDE88040FDF79DB8000080B540F268
:10361000A02044F20041C2F20000C4F200010023E5
:103620004FF00C0C4FF4E13280E80E00C0E9033398
:10363000C0E905C3C361FFF709FA002808BF80BDD0
:10364000BDE88040FDF77EB8B0B582B040F2E82416
:1036500041F20040C2F20004C4F201004FF4E13133
:1036600000250C2284E823002046C4E90355C4E960
:103670000525E561FFF7EAF9002818BFFDF762F8B4
:103680002068C16821F01001C160019501680191B5
:103690004168019101996FF040010160C16841F0FA
:1036A0001001C16002B0B0BDFEE7000010B540F2ED
:1036B0000044C4F20204204604210122FDF7D4FC98
:1036C000204608210022FDF7CFFC04F58064204647
:1036D0004FF480710022FDF7C7FC20464FF40071C3
:1036E0000122BDE81040FDF7BFBC000010B540F25C
:1036F0000044C4F20204204604210022FDF7B4FC79
:10370000204608210022FDF7AFFC04F58064204626
:103710004FF480710022FDF7A7FC20464FF40071A2
:103720000022BDE81040FDF79FBC000010B540F23C
:103730000044C4F20204204604210022FDF794FC58
:10374000204608210122FDF78FFC04F58064204605
:103750004FF480710022FDF787FC20464FF4007182
:103760000122BDE81040FDF77FBC000010B540F21B
:103770000044C4F20204204604210122FDF774FC37
:10378000204608210022FDF76FFC04F580642046E6
:103790004FF480710122FDF767FC20464FF4007161
:1037A0000022BDE81040FDF75FBC0000FEE700000E
:1037B00070B540F600040025C4F20204A5F15000E3
:1037C000C0B200F007FE0020002600F003FE10202B
:1037D00000F000FE20464FF400610122FDF744FC9A
:1037E00020464FF480510122FDF73EFC20464FF465
:1037F00080510022FDF738FC20464FF40061002282
:10380000FDF732FC782000F03FFD20464FF40061C8
:103810000122FDF729FC20464FF400610022FDF74C
:1038200023FC402000F030FD20464FF400610122CF
:10383000FDF71AFC20464FF400610022FDF714FC4E
:10384000002000F021FD20464FF400610122FDF729
:103850000BFC20464FF400610022FDF705FC2046DA
:103860004FF400610122FDF7FFFB20464FF4805129
:103870000022FDF7F9FB20464FF480510122FDF7AD
:10388000F3FB701C46B2B6F1FF3FA3DCE8B2013592
:10389000072828BF70BD91E780B54FF4FA70FDF797
:1038A000C9FAAE2000F096FD002000F093FD102034
:1038B00000F090FD402000F08DFDB02000F08AFD6A
:1038C000812000F087FDFF2000F084FDA12000F0A2
:1038D00081FDA62000F07EFDA82000F07BFD3F20AA
:1038E00000F078FDC82000F075FDD32000F072FDD7
:1038F000002000F06FFDD52000F06CFD802000F06E
:1039000069FDD82000F066FD052000F063FDD92098
:1039100000F060FDF12000F05DFDDA2000F05AFDBE
:10392000122000F057FDDB2000F054FD302000F0A5
:1039300051FD8D2000F04EFD142000F04BFDAF2016
:1039400000F048FD4FF4FA70FDF774FAFFF730FF0E
:103950004FF4FA70BDE88040FDF76CBA2DE9F047EE
:103960001E4643B2C0F3C01001EB400AAAF150005A
:10397000C0B2A2F1200423EAE37700F02BFD10206F
:1039800040EA1715284600F025FD07F00F094846C4
:1039900000F020FD102EE1B24AD146F2F06208019B
:1039A000C0F60002105C02EB011400F073FD6078B9
:1039B000A678E77894F8048000F06CFD304600F0BB
:1039C00069FD384600F066FD404600F063FD607911
:1039D00000F060FDA07900F05DFDE07900F05AFD97
:1039E000AAF14F00C0B200F0F5FCE8B200F0F2FC22
:1039F000484600F0EFFC207A00F04CFD607A00F0C1
:103A000049FDA07A00F046FDE07A00F043FD207BFE
:103A100000F040FD607B00F03DFDA07B00F03AFD32
:103A200004F10F000078BDE8F04700F033BD00BF9F
:103A300046F2C84201EB4101C0F6000212F8110043
:103A400002EB410700F026FD7878BC78FD783E79DE
:103A500000F020FD204600F01DFD284600F01AFD74
:103A6000304600F017FD781D0078BDE8F04700F003
:103A700011BD00002DE9F04F85B0002B049103909B
:103A80007CD00E981C464508981E00905842174658
:103A9000591E4FF000085FFA80FB42F210790026B1
:103AA0004FF0000A0291019212E000BF0126039933
:103AB00040F0300205FB08110E9BC8B20499D2B247
:103AC000FFF74CFF08F10108A0450AF1010A55D0A3
:103AD0006FEA0A00C0B2584502D101202AE000BFB7
:103AE00000996FEA0800A1EB0801C9B2032900EBB5
:103AF000040101D2012009E001F0FC0200230120B1
:103B00000433DFB2974200FB09F0F9D1019F11F0B5
:103B100003010FD0012903D100EB8000400009E030
:103B20004FF47A72424302294FF0640108BF00FB50
:103B300001F21046B7FBF0F04CF6CD41CCF6CC418B
:103B4000A0FB0112D10801EB8101002EA0EB410086
:103B5000ADD102994145AADD0028A7D10398049967
:103B600005FB08000E9BC0B22022FFF7F7FE0026DF
:103B700008F10108A0450AF1010AA9D105B0BDE884
:103B8000F08F0000B0B582B040F27804C2F20004B9
:103B9000617A2C2808BF002916D0122808BF0129F5
:103BA0001ED0032928D0022930D1227A5B2802F1C5
:103BB000010104EB42022172D08235D0C8B20A283A
:103BC00032D202B0B0BD00BF217A01206072481C21
:103BD000207204EB41002C21C18202B0B0BD00BFB5
:103BE000217A02206072481C207204EB41001221ED
:103BF000C18202B0B0BD00BF207A04EB4000808AD1
:103C00005B2803D10020208102B0B0BD00202081BC
:103C1000C4F81600C4F81A00C4F81E00C4F8220044
:103C2000C4F8260002B0B0BDC9B204F1160505EB18
:103C3000410131F80A1C03206072CAB221704FF0B2
:103C4000040C232006210323CDF800C0FFF712FF48
:103C5000207AA17A05EB400010F8082C10F8063CF9
:103C600010F8040C6270E268E070501C0029A37028
:103C7000E060A6D10120A07202B0B0BD7047000084
:103C8000704700002DE9F04140F27806C2F20006CC
:103C90007078C8B346F6E048737906F11005C0F6AF
:103CA0000008284641460022002401F07FFF06F16B
:103CB0002C073846294604220423FEF7E7FF7379D0
:103CC00028464146002201F071FF38462946042269
:103CD0000423FEF7DBFF737928464146002201F0FA
:103CE00065FF3846294604220423FEF7CFFF737987
:103CF00028464146002201F059FF38462946042251
:103D00000423FEF7C3FF41E040F20008C2F20008BE
:103D100046F6E04598F80020737906F11004C0F6E5
:103D200000052046294601F041FF06F12C073846E0
:103D3000214604220423FEF7A9FF98F80020737996
:103D40002046294601F032FF38462146042204234A
:103D5000FEF79CFF98F8002073792046294601F071
:103D600025FF3846214604220423FEF78FFF98F8EA
:103D7000002073792046294601F018FF3846214675
:103D800004220423FEF782FF98F80040737906F1BD
:103D9000100546F6E041C0F600012846224601F033
:103DA00005FF06F12C00294604220423BDE8F0415A
:103DB000FEF76CBF40F27800C2F200008178B9B122
:103DC000012919D101788171022918D0012927D13F
:103DD00040F20001C2F2000144F202120A8040F2F5
:103DE0000C01C2F2000100220A70012115E000BF9F
:103DF0000021C1800171704781790229E6D140F22A
:103E00000001C2F2000144F202220A8040F20C01D9
:103E1000C2F2000100220A7002214171704700BF06
:103E20000329FBD340F20002C2F2000244F2027303
:103E3000138040F20C020339C2F20002002305296C
:103E4000137088BF7047DFE801F0030507090B0D09
:103E50000321E2E70421E0E70521DEE70621DCE7B4
:103E60000721DAE70821D8E7FDF70AB9B0B592B023
:103E7000002443F64000CDE90A44CDE90844059406
:103E8000CDE90344CDE901440094C4F20200016885
:103E9000022541F080510160006800F080500090E0
:103EA000009847F200000094C4F20000016865F336
:103EB0008F3101600068542100F440400090009868
:103EC000012006904FF4803007904FF480000D9051
:103ED00004200E90119006A80C95CDE90F15FDF762
:103EE00097FA18B172B600BFFEE700BF0F20CDE908
:103EF00001054FF48050CDE9040401A80221039488
:103F0000FDF776F910B172B6FEE700BF12B0B0BD92
:103F10004EF68850CEF20000016841F47001016055
:103F20007047000080B540F23810C2F20000FEF782
:103F30000FF840F25820C2F20000BDE88040FEF7C2
:103F400007B8000080B540F23810C2F20000FDF75B
:103F5000FFFF40F28010C2F20000BDE88040FDF794
:103F6000F7BF000010B540F2FF7E0368C4F2000EF8
:103F700040F2000C7045C4F2010C1DDD40F6000259
:103F8000C4F20002904220D060451ED040F60042AC
:103F9000C4F20002904218D04FF6FF72C4F2000241
:103FA00090421CDC704525DCB0F1804F3AD040F2E5
:103FB0000042C4F2000233E0B0F1804F05D040F27D
:103FC0000042C4F200029042E6D14A6823F0700336
:103FD00013434FF6FF72C4F200029042E2DD44F256
:103FE000FF32C4F20102904210DC60451AD044F264
:103FF000000213E040F60002C4F20002904211D029
:1040000040F60042C4F200020AE000BF44F600029B
:10401000C4F20102904205D044F20042C4F201020F
:10402000904203D1CA6823F44073134323F0800203
:104030004B69D1F800E08C681A4360450260C462A5
:10404000C0F828E002D10969CCF8301001214161A3
:104050000169C90708BF10BD016921F001010161B3
:1040600010BD0000806B0021C185C184FEF734BA09
:1040700081B090F84210222921D183680246B3F51D
:10408000805F09D152F8281F52F8183C002B63D0EA
:1040900003685B680AE000BF52F8281F13B9036980
:1040A000002BF5D003685B6803F07F030B70116889
:1040B00001311160C18D01390A04C18502D001B0FE
:1040C000704700BF0168CA6822F02002CA60CA684F
:1040D00022F48072CA604A6922F001024A612021FA
:1040E00080F8421000214163026B012A3CD1016338
:1040F000016851E8031F026821F0100142E8031330
:10410000DBB1016851E8031F026821F0100142E8A9
:10411000031393B1016851E8031F026821F01001F5
:1041200042E803134BB1016851E8031F026821F014
:10413000100142E80313002BDAD101680A68D206A5
:1041400006D5002200920A68009249680091009901
:10415000818D01B0FEF7BEB9026852686FF35F222D
:1041600021F8022B8162A5E701B0FEF775BD0000C2
:1041700010B504460068D4E902C22369016921F43C
:10418000405111430161626943EA0C01E369114343
:10419000C268194349F20C639A431143C1604169F3
:1041A000A26921F4407141F20043114340F480625E
:1041B000C4F201039A42416102D1FDF7DFF801E048
:1041C000FDF7C8F8E16963681922B1F5004FA0FB5B
:1041D000020123D15A00DB0FFBF7F8FF48F21F5111
:1041E000C5F2EB11A0FB01235A094FF69C73C0F6F0
:1041F000FF7303F1805302FB0300322303EBC00083
:10420000A0FB01014FF4F87000EA111000EB02105E
:10421000C1F3421108442168886010BD9A009B0FC9
:10422000FBF7D4FF48F21F51C5F2EB11A0FB0123AD
:104230005A094FF69C73C0F6FF7302FB030032234A
:1042400003EB0010A0FB0101F02000EA511000EB8D
:104250000210C1F3431108442168886010BD0000BA
:1042600040F2A400C2F20000FEF738B940F2A020EC
:10427000C2F20000FEF732B940F2E820C2F20000BC
:10428000FEF72CB9FEE70000B0B540F60004C4F21A
:104290000204054620464FF400610022FCF7E4FECC
:1042A000EA0920464FF48051FCF7DEFE20464FF429
:1042B00000610122FCF7D8FE20464FF40061002285
:1042C000FCF7D2FEC5F3801220464FF48051FCF774
:1042D000CBFE20464FF400610122FCF7C5FE2046CC
:1042E0004FF400610022FCF7BFFEC5F340122046E8
:1042F0004FF48051FCF7B8FE20464FF400610122D4
:10430000FCF7B2FE20464FF400610022FCF7ACFE41
:10431000C5F3001220464FF48051FCF7A5FE20465D
:104320004FF400610122FCF79FFE20464FF400612C
:104330000022FCF799FEC5F3C00220464FF48051DD
:10434000FCF792FE20464FF400610122FCF78CFE40
:1043500020464FF400610022FCF786FEC5F3800280
:1043600020464FF48051FCF77FFE20464FF4006159
:104370000122FCF779FE20464FF400610022FCF791
:1043800073FEC5F3400220464FF48051FCF76CFEEB
:1043900020464FF400610122FCF766FE20464FF4F0
:1043A00000610022FCF760FE05F0010220464FF498
:1043B0008051FCF759FE20464FF400610122FCF7C2
:1043C00053FE20464FF400610022BDE8B040FCF7E8
:1043D0004BBE0000B0B540F60004C4F2020405462E
:1043E00020464FF400610122FCF73EFE20464FF4C8
:1043F00080510122FCF738FE20464FF48051002204
:10440000FCF732FE20464FF400610022FCF72CFE40
:104410007820FFF739FF20464FF400610122FCF7B6
:1044200023FE20464FF400610022FCF71DFE002011
:10443000FFF72AFF20464FF400610122FCF714FE2B
:1044400020464FF400610022FCF70EFE2846FFF7DD
:104450001BFF20464FF400610122FCF705FE2046B9
:104460004FF400610022FCF7FFFD20464FF400618D
:104470000122FCF7F9FD20464FF480510022FCF7A1
:10448000F3FD20464FF480510122BDE8B040FCF717
:10449000EBBD0000B0B540F60004C4F202040546CE
:1044A00020464FF400610122FCF7DEFD20464FF468
:1044B00080510122FCF7D8FD20464FF480510022A4
:1044C000FCF7D2FD20464FF400610022FCF7CCFD42
:1044D0007820FFF7D9FE20464FF400610122FCF757
:1044E000C3FD20464FF400610022FCF7BDFD4020D3
:1044F000FFF7CAFE20464FF400610122FCF7B4FD2D
:1045000020464FF400610022FCF7AEFD2846FFF77D
:10451000BBFE20464FF400610122FCF7A5FD2046BA
:104520004FF400610022FCF79FFD20464FF400612C
:104530000122FCF799FD20464FF480510022FCF740
:1045400093FD20464FF480510122BDE8B040FCF7B6
:104550008BBD000070B540F60004C4F2020440F2C6
:104560007206C2F200060020A4F50065B07028466D
:104570002021FCF773FD10B9B0780130B0702046EF
:104580000221FCF76BFD10B9B0780130B070204605
:104590000421FCF763FD10B9B0780130B0702046FB
:1045A0000821FCF75BFD10B9B0780130B0702846E7
:1045B0008021FCF753FD10B9B0780130B070284667
:1045C0004021FCF74BFD10B9B0780130B0702046A7
:1045D0004FF48061FCF742FD10B9B0780130B07043
:1045E00020464FF40051FCF739FDB178002812BF86
:1045F0000139481CB070C8B2032807D37078013065
:10460000C1B20B29707003D301203070002070708C
:1046100020460821FCF722FD50B328468021FCF7F4
:104620001DFD38B328464021FCF718FD20B3204675
:104630000421FCF713FD08B320460221FCF70EFD10
:10464000F0B120464FF48061FCF708FDD0B1284658
:104650002021FCF703FDB8B120464FF40051FCF7D0
:10466000FDFC01460320002908BF072070BD00BFE4
:10467000032070BD042070BD052070BD022070BDF8
:10468000012070BD062070BD002070BD82B040F6D4
:104690000004C4F20204FCF701FDFFF7E7FBFEF79C
:1046A000F3FBFEF7B3FBFEF7B7FCFEF797FDFEF753
:1046B00073FEFEF78BFFFEF7A9FFFEF7C5FFFEF7BF
:1046C0008BFCFEF74DFF40F23810C2F200000021D3
:1046D0004FF0000AFDF714FE40F21025C2F200056B
:1046E00028460821FDF70CFE28460C21FDF708FEA0
:1046F0003420C4F20100C821016040F2A40040F25D
:104700008301C2F20000C2F2000101220127FEF77C
:1047100079FA4FF47A70FCF78DFBFFF7BDF84FF490
:10472000FA70FCF787FBFFF743F840F2400840F2CD
:10473000000B40F2010640F2720940F25A05C2F243
:104740000008C2F2000BC2F20006C2F20009C2F277
:1047500000050BE098F8000088F8067089F800A0C2
:10476000A8F802A0013088F8000000BFB8F80C00DB
:104770000A2809D3A8F80CA0FFF784FA98F80400D7
:1047800000283FD001F0DEF898F805109BF80000F3
:10479000012908BF012803D00228E7D106E000BFA5
:1047A000FFF708FB9BF800000228DFD1FFF700F8B5
:1047B00001F0C8F898F80500022841D00128D5D1A9
:1047C0003078422800F08A80412840F0A38098F891
:1047D00000000328CAD8DFE810F005001F023702E6
:1047E0004F0200BF88F806A0A8F807A0FBF7AEFFAD
:1047F00099F800000128ADD098F806000028F3D001
:1048000037E200BF20462021FCF728FC002851D0C9
:1048100020462021FCF722FC0128B3D198F805009E
:1048200088F80AA00128ADD198F809000130C1B27A
:10483000042988F8090024BF022088F80500A1E7B0
:10484000307840F20C0141380728C2F2000181F8AB
:1048500000A03FF68BAFDFE810F009009100B70031
:10486000DD0005012F0157017F0100BF98F801000D
:1048700004283FF67BAFDFE810F099010500B10195
:10488000C503DB0398F8070001287FF46FAF88F8B1
:1048900006A000BFA8F807A0FBF758FF99F8000092
:1048A000012800F0F48498F806000028F2D000F007
:1048B000F4BC00BF98F8050088F809A000287FF430
:1048C00061AF98F80A000130C1B2042988F80A00E3
:1048D00024BF40F20110A8F8040053E798F8000044
:1048E00003283FF643AFDFE810F00500E7010302BD
:1048F000190200BF88F806A0A8F807A0FBF726FF5A
:1049000099F8000001283FF425AF98F80600002828
:10491000F2D0AEE198F800200A20032103233746A5
:1049200026462C4604250095254634463E4601275A
:10493000FFF7A0F898F800000A283FF617AFDFE865
:1049400010F00B0035025002D403FD018F02B302B8
:10495000F5021F031F02310388F806A0A8F807A07C
:10496000FBF7F4FE99F80000012800F0A38398F803
:1049700006000028F2D000F0A3BB00BF98F80100A9
:1049800004283FF6F3AEDFE810F011010500F9004E
:1049900065037B0398F8070001287FF4E7AE6420E5
:1049A000A8F806A0FCF746FA98F80600002840F0A0
:1049B0007484A8F807A0FBF7C9FE99F80000012845
:1049C000F2D100F064BC00BF98F8010006283FF661
:1049D000CDAEDFE810F0EB0007000301EF030504A4
:1049E0001B04320398F8070001287FF4BFAE88F853
:1049F00006A000BFA8F807A0FBF7A8FE99F80000E2
:104A0000012800F0448498F806000028F2D000F055
:104A100044BC00BF98F8010006283FF6A7AEDFE8C7
:104A200010F0C5000700AD0005041B0421043F047D
:104A300098F8070001287FF499AE6420A8F806A032
:104A4000FCF7F8F998F80600002840F02684A8F84A
:104A500007A0FBF77BFE99F800000128F2D100F0D7
:104A600016BC00BF98F8010009283FF67FAEDFE8CA
:104A700010F09D000B00B5003904B5004F0465042B
:104A80007B048B04E40200BF98F8070001287FF440
:104A90006DAE88F806A000BFA8F807A0FBF756FE89
:104AA00099F80000012800F0F28398F80600002829
:104AB000F2D000F0F2BB00BF98F8010009283FF6E1
:104AC00055AEDFE810F073000B005B0071048B0043
:104AD00087049D04B304C304BA0200BF98F807001A
:104AE00001287FF443AE88F806A000BFA8F807A00D
:104AF000FBF72CFE99F80000012800F0C88398F815
:104B000006000028F2D0C8E398F8010009283FF613
:104B10002DAEDFE810F04B000B006300AB04330058
:104B2000C104D704ED04FD04920200BF98F8070009
:104B300001287FF41BAE88F806A000BFA8F807A0E4
:104B4000FBF704FE99F80000012800F0A08398F814
:104B500006000028F2D0A0E398F8010009283FF6EB
:104B600005AEDFE810F02300E5040B00FB040B00AA
:104B7000110527054F055F056A0200BF98F806007A
:104B800001287FF4F3ADA8F806A088F80870FEF7B6
:104B90008DFD40F60F70A8F802004FF44370FCF74B
:104BA00049F9FEF7C3FD4FF439702EE0A8F806A0CE
:104BB00088F80870FEF77AFD40F60F70A8F802003A
:104BC0004FF4C870FCF736F9FEF7D0FD4FF47A7059
:104BD000FCF730F94FF42A7000F086BD98F8060013
:104BE00001287FF4C3ADA8F806A088F80870FEF786
:104BF0005DFD40F60F70A8F802004FF46170FCF7FD
:104C000019F9FEF7B3FD4FF44D70FCF713F9A8F84E
:104C100002A000F06BBD00BF98F8060001287FF4E9
:104C2000A5ADA8F806A088F80870FEF73FFD40F68D
:104C30000F70A8F802004FF44370FCF7FBF8FEF782
:104C400075FD4FF439704DE098F8070001287FF4A6
:104C50008DAD88F806A000BFA8F807A0FBF776FD89
:104C600099F8000001283FF475AD98F80600002877
:104C7000F2D098F8000075E598F8060001287FF456
:104C800075ADA8F806A088F80870FEF70FFD40F68D
:104C90000F70A8F802004FF44870FCF7CBF840F210
:104CA0000C00C2F20000A8F803A088F802A0077068
:104CB00088F807705AE500BF98F80600012835D13A
:104CC000A8F806A088F80870FEF7F0FC40F60F7010
:104CD000A8F802004FF46170FCF7ACF8FEF746FD4F
:104CE0004FF44D70FCF7A6F8A8F802A083E100BFCE
:104CF00098F8070001287FF439AD88F806A000BFB6
:104D0000A8F807A0FBF722FD99F80000012800F0A1
:104D1000578198F806000028F2D055E198F807006E
:104D200001287FF423ADA8F802A042E198F807001B
:104D300001287FF41BAD012014E500BF98F80600A0
:104D400001287FF413AD40F27E00C2F2000001782A
:104D500040F27D00C2F20000027840F27900C2F217
:104D600000000078914208BF012800F0E7849142DA
:104D700008BF02287FF4FAAC052000F030BD00BF68
:104D800098F8070001287FF4F1AC88F806A000BF6E
:104D9000A8F807A0FBF7DAFC99F80000012800F05A
:104DA0000F8198F806000028F2D00DE198F806006F
:104DB000012816D1A8F806A088F80870FEF776FC3E
:104DC00040F60F70A8F802004FF4FA70FCF732F8C2
:104DD00098F8000088F80770013088F80000FEF7A6
:104DE00051FF98F80700012840F07F812F8088F854
:104DF00006A000BFA8F807A0FBF7A8FC99F80000E0
:104E0000012802BF88F8067089F800A0A8F802A05F
:104E100028887928EED3A5F800A0C8F810A0FEF7DE
:104E200065FC4FF47A70A8F802A0FCF703F84FF481
:104E3000FA70FBF7FFFFFEF739FC89F800A088F84D
:104E400006A000BFA8F807A0FBF780FC99F80000B7
:104E5000012800F03F8198F806000028F2D03FE1D9
:104E600098F8060001287FF481AC307806214728A5
:104E700088F8001000F0648445287FF477ACA8F827
:104E800006A088F80870FEF711FC40F60F70A8F82D
:104E900002004FF44370FBF7CDFFFEF747FC4FF4E1
:104EA000397000F05FBC00BF98F8070001287FF45C
:104EB0005DAC072088F8000088F806A02F8000BFAE
:104EC000A8F807A0FBF742FC99F80000012802BFF0
:104ED00088F8067089F800A0A8F802A02888C928D8
:104EE000EED3A5F800A0FEF701FC4FF47A70A8F805
:104EF00002A0FBF79FFF4FF4FA70FBF79BFFFEF752
:104F0000D5FB89F800A088F806A000BFA8F807A084
:104F1000FBF71CFC99F80000012800F0B58398F815
:104F200006000028F2D0FFF721BC00BF98F8060069
:104F300001287FF41BAC3078472800F023844528F3
:104F40007FF414AC40F27E00C2F20000017840F21F
:104F50007D00C2F20000027840F27900C2F2000047
:104F60000078914208BF012800F03284914208BFC6
:104F700002281CD1082088F80000462000F032BC2E
:104F800098F8060001287FF4F1AB30784338052803
:104F90003FF6ECAB07FA00F010F0150F7FF441AECE
:104FA0008EE600BF98F8070001287FF4DFABC8E960
:104FB00004AA40F20C00C2F200000770FFF7D6BB53
:104FC00089F800A0A8F802A0A8F806A088F8087040
:104FD000FEF76CFB40F60F70A8F802004FF4487023
:104FE000FBF728FF40F20C00C2F20000A8F803A073
:104FF00088F802A0077098F8000088F80770FFF79B
:10500000B1BB00BF98F8070001287FF4AFAB88F868
:1050100006A000BFA8F807A0FBF798FB99F80000CE
:10502000012800F04D8398F806000028F2D04BE3E9
:1050300098F8070001287FF499ABC8E904AA40F268
:105040000C00C2F200000770FEF750FBA8F802A0A7
:10505000FFF78CBB98F8070001287FF487AB88F82E
:1050600006A000BFA8F807A0FBF770FB99F80000A6
:10507000012800F0258398F806000028F2D023E3E9
:1050800098F8070001287FF471AB40F20C00C2F2DF
:105090000000C8E904AA0770FEF728FBA4F5006029
:1050A0004FF400410022A8F802A0FBF7DDFFFFF754
:1050B0005DBB00BF88F8067089F800A0A8F802A0C0
:1050C00098F80000013088F80000FEF7DBFDFFF7DC
:1050D0004DBB00BF88F8067089F800A0A8F802A0B0
:1050E00098F80000013088F8000098F806000128C0
:1050F0007FF43CAB40F27E00C2F20000017840F247
:105100007D00C2F20000027840F27900C2F2000095
:105110000078914208BF012800F0DC80914208BF6E
:10512000022800F08F8200287FF420ABA8F806A0A8
:1051300088F80870FEF7BAFA40F60F70A8F8020077
:105140004FF4FA70FBF776FE2F8000BFA8F807A097
:10515000FBF7FCFA99F80000012802BF88F80670F6
:1051600089F800A0A8F802A028889728EED3A5F80F
:1051700000A0FEF7BBFA4FF47A70A8F802A0FBF784
:1051800059FE4FF4FA70FBF755FEFEF78FFA89F8D7
:1051900000A088F806A000BFA8F807A0FBF7D6FA81
:1051A00099F80000012800F00B8398F80600002809
:1051B000F2D05EE598F8070001287FF4D7AA88F8B6
:1051C00006A000BFA8F807A0FBF7C0FA99F80000F6
:1051D000012800F0958298F806000028F2D093E2AA
:1051E00098F8060001287FF4C1AA88F806A000BF3D
:1051F000A8F807A0FBF7AAFA99F80000012846D002
:1052000098F806000028F3D047E000BF88F806A011
:10521000A8F807A0FBF79AFA99F80000012800F017
:105220003B8298F806000028F2D039E298F807008F
:1052300001287FF49BAA6420A8F806A0FBF7FAFDDA
:1052400098F8060048BBA8F807A0FBF77FFA99F882
:1052500000000128F4D11AE098F8060001287FF434
:1052600085AAC1E198F8070001287FF47FAA64208D
:10527000A8F806A0FBF7DEFD98F8060068B9A8F8C4
:1052800007A0FBF763FA99F800000128F4D188F829
:10529000067089F800A0A8F802A098F8010029E299
:1052A00098F8060001287FF461AAA8F806A088F8FB
:1052B0000870FEF7FBF940F60F70A8F802004FF4F3
:1052C0007A70FBF7B7FD4FF49670FBF7B3FD88F8E3
:1052D0000770B4E6082088F8000043203070FFF71C
:1052E00045BA00BF98F8070001287FF43FAA88F864
:1052F00006A000BFA8F807A0FBF728FA99F800005D
:105300000128C4D098F806000028F3D0C5E700BFF4
:1053100098F8070001287FF429AA88F806A000BFA2
:10532000A8F807A0FBF712FA99F80000012800F08E
:10533000918198F806000028F2D08FE198F80600D5
:1053400001287FF413AA88F806A000BFA8F807A0D8
:10535000FBF7FCF999F80000012800F0418198F86A
:1053600006000028F2D03FE188F806A0A8F807A0C0
:10537000FBF7ECF999F8000001283FF488AF98F8A2
:1053800006000028F2D088E788F806A0A8F807A051
:10539000FBF7DCF999F80000012800F0918198F8FA
:1053A00006000028F2D08FE198F8070001287FF46A
:1053B000DDA988F806A000BFA8F807A0FBF7C6F98A
:1053C00099F8000001283FF462AF98F80600002821
:1053D000F2D062E798F8070001287FF4C7A988F89F
:1053E00006A000BFA8F807A0FBF7B0F999F80000E5
:1053F000012800F02F8198F806000028F2D02DE156
:1054000098F8060001287FF4B1A988F806A000BF2B
:10541000A8F807A0FBF79AF999F80000012800F016
:10542000DF8098F806000028F2D0DDE088F806A0BA
:10543000A8F807A0FBF78AF999F8000001283FF4C3
:1054400026AF98F806000028F2D026E788F806A0D4
:10545000A8F807A0FBF77AF999F80000012800F0F6
:105460002F8198F806000028F2D02DE198F8070067
:1054700001287FF47BA988F806A000BFA8F807A040
:10548000FBF764F999F8000001283FF400AF98F8A1
:1054900006000028F2D000E798F8070001287FF402
:1054A00065A988F806A000BFA8F807A0FBF74EF989
:1054B00099F80000012800F0CD8098F80600002837
:1054C000F2D0CBE098F8060001287FF44FA988F8C5
:1054D00006A000BFA8F807A0FBF738F999F800006C
:1054E000012800F07D8098F806000028F2D07BE0CB
:1054F00088F806A0A8F807A0FBF728F999F800009B
:1055000001283FF4C4AE98F806000028F2D0C4E6A3
:1055100088F806A0A8F807A0FBF718F999F800008A
:10552000012800F0CD8098F806000028F2D0CBE0EA
:1055300098F8070001287FF419A988F806A000BF91
:10554000A8F807A0FBF702F999F8000001283FF43A
:105550009EAE98F806000028F2D09EE698F8070064
:1055600001287FF403A988F806A000BFA8F807A0C7
:10557000FBF7ECF899F8000001283FF488AE98F8A2
:1055800006000028F2D088E698F8070001287FF48A
:10559000EDA888F806A000BFA8F807A0FBF7D6F88A
:1055A00099F80000012800F0AB8098F80600002868
:1055B000F2D0A9E098F8060001287FF4D7A888F86F
:1055C00006A000BFA8F807A0FBF7C0F899F80000F4
:1055D000012805D098F806000028F3D004E000BFA9
:1055E00089F800A0A8F802A0A8F806A088F808701A
:1055F000FEF75CF840F60F70A8F802004FF4FA705E
:1056000072E000BF88F806A0A8F807A0FBF79EF894
:1056100099F8000001283FF43AAE98F806000028F7
:10562000F2D03AE688F806A0A8F807A0FBF78EF8B3
:1056300099F80000012843D098F806000028F3D01C
:1056400042E000BF082088F8000044203070FFF7D7
:105650008DB800BF89F800A0A8F802A0A8F806A09D
:1056600088F80870FEF722F840F60F70A8F80200DC
:105670004FF4FA70FBF7DEFB98F8010040F20111DD
:10568000A8F8061036E000BF88F8067089F800A078
:10569000A8F802A0FFF76AB889F800A0A8F802A04D
:1056A00088F806A0A8F807A0FBF750F899F80000C2
:1056B000012805D098F806000028F3D004E000BFC8
:1056C00089F800A0A8F802A0A8F806A088F8087039
:1056D000FDF7ECFF40F60F70A8F802004FF47A7067
:1056E000FBF7A8FB4FF49670FBF7A4FB98F80100BA
:1056F00088F80770013088F80100FFF737B800BF5D
:1057000089F800A0A8F802A0A8F806A088F80870F8
:10571000FDF7CCFF40F60F70A8F802004FF4FA70C6
:10572000FBF788FB98F80100013088F8010040F28F
:105730000110A8F80600FFF719B800BF052048E0DF
:10574000A8F806A088F80870FDF7B0FF40F60F70C3
:10575000A8F802004FF46170FBF76CFBFEF706F847
:105760004FF44D70FBF766FB40F27900C2F2000087
:10577000A8F802A088F8077080F800A0FEF782FA67
:10578000FEF7F4BF40F27E00C2F20000017840F262
:105790007D00C2F20000027840F27900C2F20000FF
:1057A0000078914208BF012818D0914208BF022812
:1057B0007FF4FDAB082088F80000482012E000BF0D
:1057C00088F8067089F800A0A8F802A0FFF751BA7F
:1057D000082088F80000452004E000BF082088F871
:1057E000000047203070FEF74DFAFEF7BFBF000003
:1057F000B7EE001AF4EE410AF1EE10FA18BF704746
:1058000040F21400C2F2000090ED031A40F2303072
:10581000C2F2000090ED002A30EE410A30EE021A8A
:105820009FED192A9FED193A80ED001A21EE021A18
:1058300020EE032A32EE011AB7EE082A20EE020A01
:1058400030EE010A9FED132AB5EE400A9FED101AC3
:10585000F1EE10FAB8BFB0EE410AB4EE420AF1EE32
:1058600010FAC8BFB0EE420ABDEEC00A40F64001D1
:1058700010EE100AC4F20001B0F57A7F28BF4FF491
:105880007A700860704700BF666606409A99894042
:105890000000000000007A44B7EE001AF4EE410A5E
:1058A000F1EE10FA18BF704740F21400C2F2000087
:1058B00090ED081A40F23430C2F2000090ED002A58
:1058C00030EE410A30EE021A9FED192A9FED193A87
:1058D00080ED001A21EE021A20EE032A9FED163AFF
:1058E00032EE011A20EE030A30EE010A9FED142A6F
:1058F000B5EE400A9FED111AF1EE10FAB8BFB0EE06
:10590000410AB4EE420AF1EE10FAC8BFB0EE420A04
:10591000BDEEC00A40F63C0110EE100AC4F20001D0
:10592000B0F57A7F28BF4FF47A700860704700BFE7
:10593000CDCC0C409A9989409A99D93F000000003B
:1059400000007A44F0B581B040F27D00C2F2000060
:10595000027840F20000C2F2000040F238340378CE
:10596000C2F200048CA1204600F020F92278AAB1EE
:1059700000250026002700BFF0B2F9B2D2B20823FA
:10598000FDF7ECFF0836F0B201357828E8B288BFA1
:105990000237225C88BF0026002AEDD100200121B9
:1059A0004C220823FDF7DAFF082001216F2208238B
:1059B000FDF7D4FF1020012152220823FDF7CEFF6E
:1059C000182001213D220823FDF7C8FF40F279008D
:1059D000C2F200000478642C38D2B120FEF7FAFC41
:1059E0001120FEF7F7FC0E20FEF7F4FC0020FEF776
:1059F00051FD0020FEF74EFD0020FEF74BFD00207C
:105A0000FEF748FD0020FEF745FD0020FEF742FDB1
:105A10000A2C31D2B120FEF7DDFC1220FEF7DAFCB1
:105A20000020FEF7D7FC0020FEF734FD0020FEF733
:105A300031FD0020FEF72EFD0020FEF72BFD00209B
:105A4000FEF728FD0020FEF725FD20E02920604319
:105A5000000B00F130021E2001210423FDF77EFF20
:105A6000CD206043C00A1A214143090A41EA81015D
:105A7000A0EB410003E000BFCD206043C00A40F02E
:105A80003000C2B2202001210423FDF767FFCD20A2
:105A90006043C00A00EB8000A4EB400040F03000FF
:105AA000C2B2222001210423FDF758FF40F28204F4
:105AB000C2F20004207868B301281DD1002006211D
:105AC00068220823FDF74AFF0820062161220823E7
:105AD000FDF744FF1020062176220823FDF73EFF44
